:020000022000DC
:1060000000000420CDA303000DA403000FA403008F
:1060100011A4030013A4030015A403000000000052
:10602000000000000000000000000000A5C7030001
:1060300019A4030000000000C5C703001DA403004D
:10604000A9C803001FA403001FA40300CD0203007E
:106050001FA403001FA4030021A403001FA4030026
:106060001FA403001FA403001FA403001FA4030018
:106070001FA403001FA403001FA403001FA4030008
:106080001FA40300F5C403001FA403001FA4030002
:106090001FA403001FA403001FA403001FA40300E8
:1060A0001FA403001FA403001FA403001FA40300D8
:1060B0001FA40300591703000000000000000000A7
:1060C0001FA403001FA403001FA40300BDCD0300F1
:1060D0001FA403001FA403001FA40300392403000E
:1060E0001FA403001FA403001FA40300000000005E
:1060F000000000001FA403000000000035CE0300D4
:10610000000000000000000000000000000000008F
:10611000000000000000000000000000000000007F
:10612000000000000000000000000000000000006F
:10613000000000000000000000000000000000005F
:10614000000000000000000000000000000000004F
:10615000000000000000000000000000000000003F
:10616000000000000000000000000000000000002F
:10617000000000000000000000000000000000001F
:10618000000000000000000000000000000000000F
:1061900000000000000000000000000000000000FF
:1061A00000000000000000000000000000000000EF
:1061B00000000000000000000000000000000000DF
:1061C00000000000000000000000000000000000CF
:1061D00000000000000000000000000000000000BF
:1061E00000000000000000000000000000000000AF
:1061F000000000000000000000000000000000009F
:10620000F1EE103A43F08073E1EE103A704700BFB0
:1062100010B5054C237833B9044B13B10448AFF3E0
:1062200000800123237010BDA06300200000000047
:106230003891040008B5034B1BB103490348AFF381
:10624000008008BD00000000A46300203891040015
:10625000154B002B08BF134B9D46A3F5803A002138
:106260008B460F461348144A121A19F0E5F80F4BE3
:10627000002B00D098470E4B002B00D098470020F1
:10628000002104000D000D48002802D00C48AFF397
:10629000008019F075F82000290017F01DFD19F095
:1062A0005BF800BF000008000000042000000000B0
:1062B00000000000A0630020B8DB00200000000008
:1062C00000000000704700BF704700BF704700BF6C
:1062D00038B5054CA4F15405204617F0E7FBAC4255
:1062E000A4F10C04F8D138BD106400202DE9F0436E
:1062F0006C4D83B014F0D6F86B4A2B681278C01A34
:10630000904270D3694C217800296FD001F1FF3C95
:1063100001295FFA8CFC40F2BF808E1E0329F6B281
:1063200040F291800F1F0729FFB240F2B280A1F125
:1063300008085FFA88F8DFF87C91002B60D119F823
:1063400001205B484FF6FF7C66315300CDF800C05A
:10635000C2F1620207F0A2FE2178C80739D42B6887
:10636000002B5DD119F80120514856004FF6FF73FC
:10637000DD31C2F1620201930096022307F0D6FCE0
:1063800021788A0725D12B68002B60D119F80120CC
:10639000474856004FF6FF73663101930096042379
:1063A000C2F19E0207F0C2FC21784B0711D12B6885
:1063B000002B5DD119F801203D4856004FF6FF73C0
:1063C000663101930096C2F1DB02082307F0AEFCB0
:1063D00021780131C9B24F298ABF0023217023706F
:1063E00014F060F8286003B0BDE8F083DFF8C490D3
:1063F0004C274E264FF04F0C4FF04808002B9ED0F4
:1064000019F80C202A4848F21E4E0CF16601530080
:10641000CDF800E0C2F1620207F040FE21788EE77D
:1064200019F8062022484FEA420C4EF6316306F175
:10643000DD010193CDF800C0C2F16202022307F032
:1064400075FC21788EE74C274FF0480873E719F860
:106450000720174856004CF2D25307F1660101930A
:106460000096C2F19E02042307F060FC21788DE7BC
:1064700019F808200E4856004CF67B5308F16601C7
:1064800001930096C2F1DB02082307F04FFC21784C
:1064900090E74FF048084EE74C274E264FF048084B
:1064A00049E700BF3871002074600020DC700020D4
:1064B000ACA00020E02904002DE9F04F4D4FDFF89B
:1064C00058814D4E4D4CDFF85491ADF2A46D02252C
:1064D00007A9332010F0FAF9D7ED000AF5EE400ACB
:1064E000F1EE10FA3246214607A807D098ED000ACF
:1064F00010F02AFB012D16D00125E9E710F05CFA17
:10650000F2EE000A70EE600AF0EE407A324698ED44
:10651000000AC9ED007A214607A8C7ED000A10F06D
:1065200013FB012DE8D1364B0493DFF8F4B0DFF80C
:10653000F4A0DFF8F490334EDFF8F08000230593E9
:10654000049DBDF8147003950024DBF80020039B24
:10655000DAF80010F3EC016A2B4D039307EE902A52
:10656000F8EEE77A07EE101AF4EEE67AB8EEC77A9C
:10657000F1EE10FA88BFF0EE667AF4EEC77AF1EE2B
:1065800010FAB8BFF0EE477AFDEEE77A40F2171343
:1065900017EE900A0093002317F06AF91B4AB9F826
:1065A0000030117895F800C0194D3288C0B213FB45
:1065B000071135F8100001901BB214FB02C20093C2
:1065C000B6F9003009B212B20134404607F0AEFB12
:1065D000182CBAD1059B049A01338032182B0593ED
:1065E0000492ADD113F05EFF0A4B18600DF2A46D5A
:1065F000BDE8F08FB0640020B86400204473002030
:10660000C8640020786000203560002034600020DD
:10661000442A0400EC7000201C600020AC640020C0
:10662000046000200C60002076600020ACA00020F8
:10663000F0B5414B4148424F424D83B00126002105
:106640001E7006F0A1FA31463C4808F065FA314662
:106650000920002417F00AF800210D2017F006F891
:106660002146042017F002F82346224621463846E8
:10667000009405F0A3FE384605F0EAFB2146102001
:1066800017F0A4FB2146112017F0A0FB2146122091
:1066900017F09CFB2146132017F098FB284605F0C5
:1066A00033FF294F29492A4A2A482B4B00940E7060
:1066B000147004601C603C702849294A29482A4B00
:1066C0002A4FDFF8DCC00C7014703146224604708B
:1066D0001C7028463C6080238CF8004005F06EFE5C
:1066E0002246284600948023022105F067FE2246B8
:1066F000284680230321009405F060FE284605F01B
:10670000A7FB1B4D1B481C491C4A1D4B2C700470D9
:106710000C7014601C601B4F1B4E1C4D1C481D4907
:106720001D4A1E4B3C6034602C6004600C70147079
:106730001C7003B0F0BD00BFA1640020ACA000201D
:106740001C64002034640020A064002097640020B2
:106750009A64002030710020CC700020A2640020D8
:10676000A5640020A76400209D64002038710020EB
:106770008F6400209064002091640020407100200C
:106780003C710020E4700020E0700020C070002008
:10679000BC70002098640020A36400208C6400205A
:1067A000DC70002000000000F0B583B0044613F058
:1067B00079FE0A2C05461FD0082C01D003B0F0BD8D
:1067C000A74B1B78002BF9D1A64CA74A2368126867
:1067D000C31A9342F2D9A54B1B78002B00F07E819F
:1067E000A34E3368013B032B00F24982DFE813F02C
:1067F000F601EC01E201D1019E4C236893B39E4A5D
:106800001268C31A93422DD89C4C23682BB19C4A22
:106810001268EB1A934240F29D800E2016F074FE2F
:1068200080B26D2862D9DB2840F2C580B0F5A57F23
:10683000C0F00F81B0F5DC7FC0F0FB8140F2252372
:10684000984240F2FC81B0F5257FC0F0FB818D4974
:1068500040F201329042A1F10C0396BF194607267F
:10686000062645E0884B1B784BB1884E3368013BC8
:10687000032B00F2FA81DFE803F0C4BAB0A11420C0
:1068800016F042FE07EE900AF8EE677A17EE900ACD
:1068900017F0E6FE70A3D3E9002317F039FF18F0D4
:1068A0000FFA9FED7B7A07EE900AF4EEC77AF1EECD
:1068B00010FA80F2B3804FF4A070642300934FF479
:1068C000D27200234FF4A07116F0D2FF714AC3B206
:1068D000A2FB03231B09013B042B00F2BE81DFE86E
:1068E00013F0500148014001AF00AF006A49002693
:1068F0006A486B4F17F0E2F86A4B6B4953F8263041
:106900006A4EC3F3C42003F01F0200EB0010C3F370
:106910004513C0EB401002EB021200F1170CC2EB62
:10692000421203EBC31003EB4000173292092130EF
:106930004FEA9C1380093A60D2B20092DAB20B603F
:106940003060C3B204215A4805F038FD584805F0BC
:106950007FFA2560574C584B22681B68AA1A9A4246
:106960007FF62CAF554A5649564E0968176832686B
:10697000002BB8BF07339142A1EB07004FEAE303B6
:1069800090FBF3F301DD974245DB4F48017881F03E
:106990000101017001B95B42D0180023C2B200931B
:1069A00005213060424805F009FD414805F050FAE4
:1069B000256003B0F0BD4549012699E700238022F8
:1069C000009219461A463A4805F0F8FC0323336052
:1069D0003748256005F03CFA16E70022802334484A
:1069E0000092114605F0EAFC02233360F0E7002133
:1069F00080232F480091702205F0E0FC01233360D2
:106A0000E6E700272A48009739466023802205F0F0
:106A1000D5FC3760DCE72C490978BBE7DFED2C6A51
:106A20009FED2C7A67EEA67AF4EEC77AF1EE10FAB3
:106A300088BFF0EE477AFDEEE77A17EE900A3CE762
:106A40000023802200921A481A46194605F0B6FC27
:106A5000BEE7214902264BE7CDCCCCCCCCCC1C40A8
:106A6000A0640020087100202C60002094640020A5
:106A70002860002024710020686000201C71002024
:106A800050600020106400209564002064600020A5
:106A9000CDCC4C45CDCCCCCCBC630020B49D0020EB
:106AA000D07000208C1E0400D8700020D47000200C
:106AB00034640020147100204060002048600020F1
:106AC000446000203C60002096640020C8630020E1
:106AD0000000C83D0000D243D4630020142016F00B
:106AE00013FD07EE900AF8EE677A17EE900A17F09A
:106AF000B7FD72A3D3E9002317F00AFE18F0E0F8FF
:106B00009FED657A07EE900AF4EEC77AF1EE10FA7F
:106B1000C0F29280DFED616A9FED617A67EEA67A3E
:106B2000F4EEC77AF1EE10FA88BFF0EE477AFDEE88
:106B3000E77A17EE900A642300934FF4D272002391
:106B40004FF4A07116F094FE564AC3B2A2FB032381
:106B50001B09013B042B78D8DFE803F0635B534A41
:106B60004A000022504800921146802305F026FC7E
:106B70002EE700214C4800918023702205F01EFC76
:106B800026E70021484800916023802205F016FC8A
:106B90001EE700238022009219461A46434805F05A
:106BA0000DFC032333604148256003B0BDE8F0408D
:106BB00005F04EB9002280233C480092114605F0B2
:106BC000FDFB02233360EEE700218023374800916C
:106BD000702205F0F3FB01233360E4E7002733481C
:106BE000009739466023802205F0E8FB3760DAE73A
:106BF0000023802200922D481A46194605F0DEFB3C
:106C0000D1E70022294800921146802305F0D6FBE7
:106C1000C9E70021254800918023702205F0CEFBB2
:106C2000C1E70021214800916023802205F0C6FBC6
:106C3000B9E71F4903265BE64FF4A0707BE71D49C7
:106C4000042655E61C49052652E600231748009302
:106C50001946802205F0B2FBA5E7002312480093F5
:106C60001946802205F0AAFBB2E6002300931946DC
:106C70000D48802205F0A2FB04233360A8E6002320
:106C8000009319460948802205F098FB04233360DD
:106C900089E700BFAFF30080CDCC4C450000C83D74
:106CA0000000D243CDCCCCCC346400201C64002046
:106CB000E0630020EC630020F8630020CDCCCCCC56
:106CC000CCCC1C4038B5194D13F0ECFB184A2B689E
:106CD0001268C31A9342044609D9164B197881F0F9
:106CE00001011970E1B90D2016F0C0FC2C60124DA5
:106CF000124A2B681268E31A93420BD9104A0D49C5
:106D00001378097883F00103137021B9042016F079
:106D1000ADFC2C6038BD0121042016F0A7FCF8E77B
:106D200001210D2016F0A2FCE0E700BF1071002049
:106D3000306000208E6400200C7100202460002050
:106D40008D64002070B513F0ADFB3D4B1978D1B9BF
:106D50003C4D3D4A2B681268C31A9342044611D930
:106D60003A4E3368022B5FD0032B53D0012B47D010
:106D7000132017F02BF82021122017F027F80323F7
:106D800033602C6070BD324B1B68013B032B55D820
:106D9000DFE803F002141A242021102017F016F85F
:106DA0000021112017F012F80021122017F00EF820
:106DB000BDE870400021132017F008B820211020F2
:106DC00017F004F82021ECE72021102016F0FEFF38
:106DD0002021112016F0FAFF2021E6E720211020C3
:106DE00016F0F4FF2021112016F0F0FF20211220D0
:106DF00016F0ECFFBDE870402021132016F0E6BF2E
:106E0000102016F0E3FF2021132016F0DFFF0423EB
:106E10003360B6E7122016F0D9FF2021112016F0BA
:106E2000D5FF02233360ACE7112016F0CFFF2021FD
:106E3000102016F0CBFF01233360A2E70021ACE75E
:106E4000A0640020207100205460002028710020E0
:106E5000307100200000000070B588B005460C4677
:106E600002A8374916F012FD142016F04DFB07EE6C
:106E7000900AF8EE677A17EE900A17F0F1FB2EA34E
:106E8000D3E9002317F044FC17F01AFF9FED2D7A89
:106E900007EE900AF4EEC77AF1EE10FA45DBDFED6B
:106EA0002A6A9FED2A7A67EEA67AF4EEC77AF1EEA7
:106EB00010FA88BFF0EE477AFDEEE77A17EE900AF7
:106EC000642300934FF4D27200234FF4A07116F0A4
:106ED000CFFCC6B20A22314605A816F03FFD05A92F
:106EE00002A816F011FE05A816F0E0FD092E1FDD20
:106EF000642EB4BF0823002302A905A81D4416F080
:106F0000DFFC1348134A42610123EDB2E4B205A944
:106F1000C3760582448216F015FC05A816F0C6FD5E
:106F200002A816F0C3FD08B070BD4FF4A070C7E70B
:106F30000E23E1E7AFF30080CDCCCCCCCCCC1C4011
:106F400038170400CDCC4C450000C83D0000D243AA
:106F5000ACA000207F9E7F9E2DE9F04FDFF8849348
:106F6000A7B013F09FFACA4AD9F800301268C31AC2
:106F70009342044640F27E81C64DC74BC74EC84F70
:106F8000C84AA5FB0015AD0903FB05F3A6FB0516D2
:106F9000A7FB0517B2EB730F4FEA56164FEAD72738
:106FA00080F00982C04B9C4280F0A9814EF65F239D
:106FB0009C4200F23D82BD491DA816F067FC0A22E2
:106FC00039461AA816F0CAFC1AA91DA816F0E2FD47
:106FD0000DF1800A0146504616F072FC4FF0010B8D
:106FE000514623A816F06CFCB14923A816F0FEFD0B
:106FF000092E804640F3CB8117AF314638460A222E
:1070000016F0ACFC00264046394616F0C3FDA949EF
:1070100016F0ECFD092D804600F38A81A3490BA8E8
:1070200016F034FC0A22294608A816F097FC08A995
:107030000BA816F0AFFD01460EA816F041FC0EA9F4
:10704000404616F0A7FD0DF114080146404616F023
:1070500037FC0EA816F02AFD08A816F027FD0BA88D
:1070600016F024FD384616F021FD002E40F0788100
:1070700023A816F01BFD504616F018FDBBF1000FBB
:1070800040F07E818C4DDFF860A23A230021192266
:10709000CDE9002128461A46B42106F047FE4146B4
:1070A00023A816F00DFC854B854A2B6101236A61EC
:1070B000EB7623A9284616F045FB23A816F0F6FC2C
:1070C000DAF8000017F0BAFA7E4B002217F020FB26
:1070D0006DA3D3E9002306460F4617F095FD10B9BE
:1070E00069A7D7E900673946304617F0C1FD7649F0
:1070F000764B024603EA02230868039317F09EFAD0
:10710000704B002217F004FB5FA3D3E9002306466F
:107110000F4617F079FD10B95BA7D7E9006739462C
:10712000304617F0A5FDDFF8C4B1039AC00000F4A3
:10713000FC631A43DBF80000039217F07FFA614BFF
:10714000002217F0E5FA50A3D3E9002306460F46C4
:1071500017F05AFD10B94CA7D7E9006739463046F9
:1071600017F086FD039B43EAE00080B24C23CDE993
:10717000003027223A235048012106F0D7FDDAF8E3
:10718000000017F05BFA4F4B002217F0C1FA3EA344
:10719000D3E9002306460F4617F036FD10B93AA78B
:1071A000D7E900673946304617F062FD464A474B3B
:1071B0008246106803EA0A2A17F040FA414B00227F
:1071C00017F0A6FA30A3D3E9002306460F4617F0BE
:1071D0001BFD10B92CA7D7E900673946304617F0D8
:1071E00047FDC00000F4FC63DBF800004AEA030A34
:1071F00017F024FA334B002217F08AFA22A3D3E9BE
:10720000002306460F4617F0FFFC10B91EA7D7E96A
:1072100000673946304617F02BFD4AEAE00080B29D
:107220003723CDE90030932223483A23012106F089
:107230007DFD18234FF2B372CDE900321E483A2388
:107240007722012106F072FD214923A816F038FBB0
:10725000204B2B610022012323A96A61EB7616489B
:1072600016F070FA23A816F021FC4046C9F8004039
:1072700016F01CFC184B1B78002B3DD0174D184AFC
:107280002B6835E0AFF300800000000000E06F40A5
:107290004C600020D34D6210CDCCCCCC898888883E
:1072A000C5B3A2919999991980EE3600F88D040022
:1072B0008C16040090160400ACA00020B9004B000E
:1072C0007F9E7F9E0000FC3FD470002000F8FFFFEF
:1072D000B49D002006008A009B640020F870002006
:1072E0005860002018710020D8700020D070002055
:1072F0001268E31A934275D827B0BDE8F08F4F4A61
:10730000A7EB071306EB83039442A6EB061605EBE7
:10731000860598BF1E467FF64EAE0DF1800A3946AF
:1073200050460A221E464FF0000B16F017FB57E698
:107330000A2229460EA816F011FB0EA9404616F0A7
:1073400029FC0DF114080146404616F0B9FA0EA8C2
:1073500016F0ACFB384616F0A9FB002E3FF488AEC1
:1073600011A816F0A3FB14A816F0A0FB23A816F092
:107370009DFB504616F09AFBBBF1000F3FF482AE26
:107380001AA816F093FB1DA816F090FB7AE62C497C
:1073900014A816F07BFA31460A2211A816F0DEFA7C
:1073A00011A914A816F0F6FB17AF0146384616F0DF
:1073B00087FA012627E618230022CDE9003221486A
:1073C0001E232322CD2106F0B1FC49F67F6348F24B
:1073D0001E423221D520FFF73FFD1B4B9C42FFF49C
:1073E000E5AD8CE7194F174E384610F031FF0022FB
:1073F0002323CDE90032304628232D22FA2106F03E
:1074000095FCB7F9081023A80A2216F0A7FA104B2A
:10741000104A3361012323A97261F376304616F0D6
:1074200091F923A816F042FB2C6027B0BDE8F08F3D
:107430006FF03B0303FB0655BDE500BFFF5025027F
:10744000F88D0400ACA0002080EE360044A000209F
:10745000FA004B007F9E7F9E2DE9F04F2DED088BAB
:1074600083B0824692A3D3E9002351EC100B55EC74
:10747000124B57EC116BCDF804A017F049F98CA30F
:10748000D3E90023804689463046394617F040F953
:1074900087A3D3E9002382468B462046294617F06E
:1074A00037F904460D465046594622462B4649ECCC
:1074B000188B45EC194B17F0B1FB002840F0928077
:1074C000A046A94655EC184B18EE102A2B4640460C
:1074D000494617F0A3FB10B918EE108AA94657ECDD
:1074E000196B19EE102A3B465046594617F08CFB93
:1074F00054465D4610B919EE104A3D4657EC186BDC
:1075000018EE102A3B462046294617F07DFB10B99D
:1075100018EE104A3D4642464B462046294616F094
:1075200041FF424606460F464B462046294617F085
:1075300057FB002859D122462B464046494616F0B3
:107540002FFF554B002204460D463046394617F0B2
:107550006FFB32463B4600285ED000204FF0804152
:1075600016F01EFF02460B462046294617F0FAF990
:10757000424641EC1B0B4B4651EC180B17F030FB0D
:10758000002857D059EC198B19EE102A4B4650465B
:10759000594616F005FF22462B4617F0E3F919EE7F
:1075A000102A04460D464B465046594645EC1A4BA8
:1075B00017F020FB38B1394B20462946002216F03F
:1075C000F1FE41EC1A0B51EC1A0B354B002217F06F
:1075D0009FF8344B04460D46002251EC1B0B17F06C
:1075E00097F806E0D046D9466CE700200021044613
:1075F0000D46019B0022C3E90045C3E902011C4678
:107600003046294B394617F083F8C4E9040103B02A
:10761000BDEC088BBDE8F08F2046294617F0A2F993
:10762000424641EC1B0B4B4651EC180B17F0D8FAB5
:107630000028A7D142464B465046594617F0D0FA8B
:10764000C0B951EC190B42464B4617F0C9FA002855
:10765000B9D052465B4651EC180B16F0A1FE2246FB
:107660002B4617F07FF9114B002216F09BFE41ECE0
:107670001A0BA8E753EC182B51EC190B16F090FEDF
:1076800022462B4617F06EF900224FF0804316F089
:1076900089FE41EC1A0B96E70000F03F000018400D
:1076A00000004E40000059400000494000001040DA
:1076B000101010101010703F2DE9F04F2DED0A8BB7
:1076C000DFF888B01D4D99B012F0ECFEDBF8003009
:1076D0002C68C01AA0423BD812F0E4FEDBF8002070
:1076E000174B184E801A83FB0412E417C4EBA21444
:1076F000A3FB00103268A4EB9014944208D02A68CF
:1077000083FB0213D217C2EBA3139C42C0F2F68391
:107710000D48002104F078FE20B919B0BDEC0A8BA9
:10772000BDE8F08F084804F0EFFE074804F090FB36
:1077300019B0BDEC0A8BBDE8F08F00BF6C60002073
:10774000D34D6210307100201C64002000710020B5
:1077500000242C23CDE90034CC48CD4E3B23872296
:10776000AF21462506F0E2FAC8481C231F22C62195
:10777000CDE9005406F0DAFAC4481E231F224A213C
:10778000CDE9005406F0D2FA5F23CDE90034BF48BA
:107790001B2387224A2106F0C9FAFF23BD48009324
:1077A00021461A4604F00AFEBA4804F051FB30465E
:1077B00007F062FC322012F081FE304607F05CFCDC
:1077C0000028F7D00DF11E0300930DF11A0207AB4C
:1077D00006A9AF4807F07CFCBDF81810BDF81A20C8
:1077E000BDF81C30FF2940F282839A4238BF1A4606
:1077F0008A424FF0FF044FF0000338BF0A460846A4
:1078000000941946059216F033F8002305461946F0
:10781000059ABDF81A000094ADF8185016F028F833
:10782000002305461946059ABDF81C000094ADF8E2
:107830001A5016F01DF8BDF81810ADF81C000929F3
:1078400040F2CA8363298CBF4E2556258F4C0A22ED
:1078500014A816F083F8904A62610123302014A91D
:107860006082E3762582204615F06CFF14A816F09E
:107870001DF9BDF81A10092940F2AC8363298CBFA9
:107880004E2656260A2214A816F068F84A25824A7F
:107890006261012314A9E3767C482682658215F093
:1078A00051FF14A816F002F9BDF81C10092940F286
:1078B000A78363298CBF4E2656260A2214A816F0E9
:1078C0004DF86325744A62610123E37614A9268288
:1078D00065826E4815F036FF14A816F0E7F8BDF87B
:1078E0001860304616F09AFEBDF81A5002460B4654
:1078F000284643EC182B16F091FEBDF81C7002468A
:1079000038469046894616F089FEB0EE480AF0EEF9
:10791000680A14AB41EC120B41EC1A0B49EC118BC9
:107920001846FFF799FD49EC198BDDE914895B4B8B
:1079300000224046494617F05DF9002840F05D837B
:10794000574B00224046494617F054F9002814BF0F
:107950004FF0D30A4FF0CB0A4946404617F088F95A
:107960000A22014611A815F0F9FF4B4A11996261EC
:1079700001234FF0300CE376A4F812C04348A4F87A
:1079800010A015F003FF11A816F090F8DDE9168994
:10799000424B00224046494617F02CF9002840F09F
:1079A00029833F4B00224046494617F023F900281F
:1079B00014BF4FF0D30A4FF0CB0A4946404617F0A8
:1079C00057F90A22014611A815F0C8FF324A119949
:1079D000626101234FF04A0CE376A4F812C02B48F1
:1079E000A4F810A015F0D2FE11A816F05FF8DDE99A
:1079F00018892A4B00224046494617F0FBF8002818
:107A000040F0F582264B00224046494617F0F2F836
:107A1000002814BF4FF0D30A4FF0CB0A4046494626
:107A200017F026F90A22014611A815F097FF4FF02A
:107A3000630C194AA4F812C0012311996261E3761C
:107A4000A4F810A0114815F0A1FE11A816F02EF808
:107A5000144A1549EB0002EA062203F4FC631343BF
:107A600043EAD70308A81FFA83FA15F00FFF102284
:107A7000314611A815F072FFDDF84C8011A816F000
:107A800015F8B8F1010F00F08D820FE0ACA00020D6
:107A90001CA000201C6400207F9E7F9E00002440CC
:107AA0000000594000F8FFFF38170400314610224B
:107AB00011A815F053FF11A908A816F047F811A84E
:107AC00015F0F4FF1022294611A815F047FF139E68
:107AD00011A815F0EBFF012E00F04C822946102270
:107AE00011A815F03BFF11A908A816F02FF811A84E
:107AF00015F0DCFF1022394611A815F02FFF139D59
:107B000011A815F0D3FF012D00F01C823946102278
:107B100011A815F023FF11A908A816F017F811A84D
:107B200015F0C4FF08A816F099F8C94EC94B236197
:107B3000012508996661C848E57615F027FE1022F0
:107B4000514611A815F00AFF11A908A815F0DCFF8D
:107B500011A815F0ABFF08A816F080F8BF4911A8CE
:107B600015F094FE08A911A816F014F8014608A80B
:107B700015F0A4FF11A815F099FFB94B089966619B
:107B80002361B548E57615F001FEABA3D3E90023E8
:107B900051EC180B16F0BCFDA7A3D3E90023064651
:107BA0000F4651EC190B16F0B3FDA3A3D3E9002344
:107BB00041EC180B51EC1A0B16F0AAFDB046B94671
:107BC00006460F4653EC182B4046494617F026F858
:107BD00047EC1A6B49EC198B46464F46002800F0DB
:107BE000838159EC1A8B1AEE102A4B4630463946DF
:107BF00017F014F8002800F0738132463B4699498B
:107C0000002016F0CDFB984B002216F081FD8CA3CE
:107C1000D3E90023804689463046394617F008F8F4
:107C2000002840F0DE81002200233046394616F05D
:107C3000FFFF002814BF56254E254946404617F041
:107C400017F80A22014611A815F088FE4FF0E40C3F
:107C50007F4AA4F812C0012311996261E3767E483D
:107C6000258215F093FD11A815F020FF32463B4602
:107C70007C49002016F076FE53EC182B41EC180BD3
:107C80003046394616F08CFB53EC182B16F040FDAD
:107C9000754B00228046894616F03AFD49EC1B8B55
:107CA00053EC192B804689463046394616F078FB4E
:107CB00053EC182B16F02CFD6B4B002249EC1C8B5F
:107CC0008046894616F024FD49EC198B53EC1A2B9B
:107CD000804689463046394616F062FB53EC182B35
:107CE00016F016FD604B002249EC1A8B804689463F
:107CF00016F00EFD54A3D3E9002306460F4651ECBF
:107D0000190B16F077FF002840F06F8151EC190B2A
:107D1000544B002216F06EFF002814BF56254E2546
:107D200051EC1A0B16F0A4FF0A22014611A815F017
:107D300015FE474A1199626101234FF0960CE376D4
:107D4000A4F812C04448258215F020FD11A815F0B2
:107D5000ADFE3DA3D3E9002351EC1B0B16F04AFF07
:107D6000002840F0408151EC1B0B3E4B002216F0E6
:107D700041FF002814BF56254E2551EC1C0B16F070
:107D800077FF0A22014611A815F0E8FD304A119943
:107D9000626101234FF0B00CE376A4F812C02E48C4
:107DA000258215F0F3FC11A815F080FE26A3D3E977
:107DB00000234046494616F01DFF002840F00E8182
:107DC0004046284B4946002216F014FF002814BFF5
:107DD0004FF056084FF04E083946304616F048FF2F
:107DE0000A22014611A815F0B9FDCA25184A1199B1
:107DF00062610123E3761848A4F81080658215F0CB
:107E0000C5FC11A815F052FE15222A23CDE9012A3E
:107E100011480093BD227123BA2105F085F813485B
:107E200006F028FF002848D0092840F3EB8063289B
:107E3000CCBFF025F8251BE0101010101010703F7B
:107E4000CDCCCCCCCCCCEC3F9A9999999999B93FAF
:107E50007F9E7F9EB900B000ACA00020AC1604004D
:107E6000B90096000000F03F000059401CA000201F
:107E70000A2201460BA815F03DFD0BA90EA815F02E
:107E80001FFD61490EA815F0B1FE014611A815F0BD
:107E900017FD00220123E12011A96261E3766082CF
:107EA00025825A4815F04EFC11A815F0FFFD0EA8CA
:107EB00015F0FCFD0BA815F0F9FD554804F024FB66
:107EC000534803F0C5FF12F0EDFA034608A8CBF8BB
:107ED000003015F0EBFD19B0BDEC0A8BBDE8F08F5A
:107EE0001AEE106A4F4688E657EC186B79E6FF2ABF
:107EF0003FF67BACFF2B7FF6A2AC76E4434D3460BB
:107F00004FF6C8621223CDE9003225212846072307
:107F1000372205F00BFF316800297FF7F9AB14A871
:107F20000A2215F01BFD3B4B2B6100220123149903
:107F30006A612846EB7615F029FC14A815F0B6FD09
:107F4000FFF7E6BB344911A815F0A0FC1022394612
:107F50000EA815F003FD0EA911A815F01BFE014691
:107F600008A815F0F3FD0EA815F0A0FD11A815F056
:107F70009DFDD7E5284911A815F088FC1022294657
:107F80000EA815F0EBFC0EA911A815F003FE014692
:107F900008A815F0DBFD0EA815F088FD11A815F056
:107FA00085FDA7E51C4911A815F070FC102231468B
:107FB0000EA815F0D3FC0EA911A815F0EBFD014693
:107FC00008A815F0C3FD0EA815F070FD11A815F056
:107FD0006DFD77E55C2655E45C2537E44FF05C08E1
:107FE000FAE65C2529E65C25C7E65C2598E64FF0B5
:107FF000D90A13E54FF0D90ADFE44FF0D90AABE410
:108000005C265AE4FE2533E7B0160400ACA000203D
:108010001C64002025004700F88D04002DE9F0477E
:1080200084B04B2ABDF8307004460D461E4600F061
:1080300061822ADC322A00F3DC80132A40F3C580F7
:10804000143A1E2A00F25781DFE812F05801550158
:108050005501550155017301550155015501550152
:108060005501550155015501550155015501550160
:1080700055015501B00155015501550155015501F5
:1080800055015501550155012701B2F57A7F00F0E0
:10809000B48155DD40F24C439A4200F0ED81B2F5D7
:1080A000966F40F028810FFA81F884B201B24246FF
:1080B000BD480096032305F0F1FF4FF00309A11C12
:1080C00009B2B948019642464B46CDF8009003915B
:1080D000ADB205F02BFE0399B3483B46424606F08D
:1080E000C5F9AA1C211DB04812B209B23B4606F0E0
:1080F000BDF9A11DAC4809B24B464246CDE90096F8
:10810000013505F013FE2DB2E11DA7482A4609B23C
:108110003B4606F0ABF904F10A014246A248CDF80D
:1081200000904B46019609B205F000FE0B342A463A
:1081300021B29D483B4604B0BDE8F04706F096B931
:10814000B2F5487F00F0FC81B2F5617F76D10FFA7D
:1081500081F8009301B24246022384B2924805F0AE
:108160009DFF611C009609B2424602238E4805F02D
:1081700095FFA11C8C48009609B24246032305F0E6
:108180008DFF4FF00309211D8748019609B2424631
:108190004B46CDF80090013505F0C8FD2DB2611DAC
:1081A0002A4609B23B46804806F060F904F108010E
:1081B000CDF800904B46424609B27B4801960934FF
:1081C00005F0B4FD2A4621B2B3E712F1140F00F016
:1081D0005B81002A40F08F8003230AB2CDE900368C
:1081E00001B2714805F0A2FD6A1C611C12B209B20D
:1081F0009FE73C2A7FD101F101080FFA88F802239A
:1082000001B22DB2684800934246032301960391C0
:10821000A4B205F08BFD039963482A46334606F065
:1082200025F9611D03232A465F48019609B2009390
:1082300005F07CFD0634424621B27AE7642A5AD121
:108240000FFA81F984B24FF0030801B20093564847
:108250004A46032305F022FF04EB08015248019629
:1082600009B24A464346CDF80080013505F05EFD6F
:108270002DB2211D4C482A4609B23B4606F0F6F8BD
:10828000E11D4A464848CDF800804346019609B2B0
:1082900005F04CFD08342A464AE70FFA80FA0FFA37
:1082A00081F94FF0030884B251463F4801964A468F
:1082B0004346CDF8008005F039FDA11C09B24A46BD
:1082C0003948ADB23B4606F0D1F8AA1C514612B26D
:1082D00035483B4606F0CAF8611D4A4609B23248A5
:1082E000CDF800804346019605F020FD0135A11D23
:1082F0002AB209B21DE704B0BDE8F0870FFA85F98C
:108300004FF0030801B24A46274801964346CDF88C
:1083100000800391A4B205F009FDADB20399224893
:108320004A463B4606F0A2F8AA1CA11C12B209B2AA
:10833000CEE70FFA85F94FF0030A01B24A461A4810
:1083400001965346CDF800A00391A4B205F0EEFCCF
:108350000235039914483B464A4606F087F82DB289
:10836000A11C04F104082A4609B23B460E480FFA44
:1083700088F806F07BF8CDF800A0534601964146F8
:108380004A46094805F0D2FCA11D4A463B4606482C
:1083900009B206F06BF804483B462A46414604B051
:1083A000BDE8F04706F062B8ACA000200FFA81F8F3
:1083B00084B201B2424676480096022305F06EFE72
:1083C000A11C7348009609B242460323013505F00B
:1083D00065FE2DB2611C6E482A4609B2334606F08E
:1083E00045F8611D032342466948019609B200938E
:1083F00005F09CFC06342A469AE60FFA81F984B20D
:108400004FF0030801B2009361484A46032305F088
:1084100045FE04EB08015E48019609B24A46434610
:10842000CDF80080013505F081FC2DB2211D5848A2
:108430002A4609B23B4606F019F8E11D544809B234
:1084400043464A46CDE9008605F070FC04F1080178
:108450004F482A4609B23B4606F008F804F10B01E2
:108460004A464B48CDF800804346019609B205F0D4
:108470005DFC0C342A465BE60FFA81F80096424612
:10848000032301B284B271E61FFA81F909F10108F0
:108490000FFA88F884B201B200933D4842460223A5
:1084A00005F03CFD0FFA85FAE11C032509B23848B6
:1084B000019652462B460095039105F037FC03992F
:1084C00033483B46524605F0D1FF611D09F10202D7
:1084D0002F4812B209B23B4605F0C8FFE11D5246D3
:1084E0002B4800952B46019609B205F01FFC083475
:1084F0004246A1E60FFA81F984B28DB2009301B22F
:108500004A462348032305F009FD6A1CA11C2048A4
:1085100012B209B23346023505F0A8FF2DB2611C34
:108520002A4609B233461A4804F1040805F09EFFB2
:108530000FFA88F80323019641464A46009320E744
:108540004FF003080FFA81F984B201B20193104889
:10855000CDF800804A46434605F0E8FB211D0C4853
:1085600009B243464A46CDE90086013505F0DEFBF7
:108570002DB2611C2A4609B23B46054805F076FF3C
:1085800004F10801CDF8008043464A4614E600BFD6
:10859000ACA000202DE9F047012882B004460D462A
:1085A00007D0022800F0AE80002858D002B0BDE805
:1085B000F087BC4E3378002BF8D1DFF8148311F02C
:1085C00071FFB94BD8F800201B68801A9842EDD390
:1085D000DFF80093B54BD9F800701B689F4207F194
:1085E0003D0AC0F27D8140F3F680B14C23685345CB
:1085F0000FFA8AF100F08E816368534500F08A819A
:10860000A2684FF6C863524518BF00230093A948DB
:108610000F239F2205F042FD23683E370AF1010136
:108620009F4209B200F0738163689F4200F06F813E
:10863000A2684FF6C86397420CBF1F4600270F235E
:108640009C4800979F2205F029FDD9F80030013B96
:10865000C9F8003011F026FFC8F80000A6E7964CD4
:108660002378002BA2D1954F11F01CFF8E4B3A6856
:108670001B68801A984299D3DFF85C92904BD9F826
:1086800000601B689E4206F13D08C0F2FC8040F38A
:108690008280874C236843450FFA88F100F04081BF
:1086A0006368434500F03C81A2684FF6C8634245C9
:1086B00018BF002300937F480F23712205F0EEFCC2
:1086C00023683E3608F101019E4209B200F025817F
:1086D00063689E4200F02181A2684FF6C86396420B
:1086E0000CBF1E46002600960F237122714805F02C
:1086F000D5FCD9F80030013BC9F8003011F0D2FEAA
:10870000386053E76F4C2378002B7FF44FAF6E4FE8
:1087100011F0C8FE644B3A681B68801A9842FFF457
:1087200045AFDFF8B891694BD9F800601B689E42ED
:1087300006F13D08C0F290806DDD5D4C2368434535
:108740000FFA88F100F0F2806368434500F0EE8094
:10875000A2684FF6C863424518BF002300935548EE
:108760000F23CD2205F09AFC23683E3608F1010163
:108770009E4209B200F0D78063689E4200F0D38029
:10878000A2684FF6C86396420CBF1E4600260096AC
:108790000F23CD22AAE7B1D11FFA88F54FF6FF7655
:1087A000691E4448009609B20F23712205F076FC39
:1087B000404800960FFA88F10F23712205F06EFCF5
:1087C000691C0F233B48009609B2712205F066FC34
:1087D0000123237092E77FF43DAF1FFA8AF54FF62D
:1087E000FF77691E3348009709B20F239F2205F0D7
:1087F00055FC304800970FFA8AF10F239F2205F0AD
:108800004DFC691C2B48009709B20F239F2205F0ED
:1088100045FC34701EE77FF471AF1FFA88F54FF600
:10882000FF76691E2348009609B20F23CD2205F07A
:1088300035FC204800960FFA88F10F23CD2205F071
:108840002DFC691C0F231B48009609B2CD2205F0B0
:1088500025FC0123237051E70FFA88F10F23CD2265
:108860001448009505F01AFC06F13C0109B2009588
:108870000F23CD220F4805F011FCD9F80030013349
:10888000C9F800303AE70FFA88F10F23712209483E
:10889000009505F003FC06F13C0109B200950F2399
:1088A0007122E7E79864002020600020E470002037
:1088B00010600020ACA00020A36400200471002000
:1088C000407100208C640020E8700020C0700020FF
:1088D000F4700020E07000203C710020BC7000208B
:1088E000144800950FFA8AF10F239F2205F0D6FB5A
:1088F00007F13C010F230F48009509B29F2205F0B4
:10890000CDFBD9F800300133C9F80030A2E64FF6AC
:10891000C86794E64FF6C86378E64FF6C866E2E6A5
:108920004FF6C863C6E64FF6C86630E74FF6C86331
:1089300014E700BFACA00020CB4B1B7803B97047F5
:108940002DE9F04F2DED028BDFF86C8389B011F02B
:10895000A9FDC64BD8F800201B68801A984240F247
:108960003381C34B1D78002D40F04281C14BDFEDB8
:10897000C28A1B78002B40F054819FEDBF8ABF4E06
:10898000D6ED007AF4EE687AF1EE10FA71D0F2EEDC
:10899000047A68EEA77AF5EEC07AF1EE10FA17EED7
:1089A000900AC0F2448115F05BFEB54B002215F031
:1089B000F9FC16F05DF915F041FEA5A3D3E90023FB
:1089C00015F0A6FE16F07CF9AE4CDFF8F092844666
:1089D00000272A231F22CDE900372046C6F800C011
:1089E0002123502105F0A2F996ED000A022102A8E8
:1089F00014F0E8FF049902A8013915F027F90126BF
:108A0000A14B23610299C4F814902046E67614F035
:108A1000BDFE18EE900A15F023FE8FA3D3E90023C4
:108A200015F0C0FC16F024F90A22014605A814F03E
:108A300095FF964B05992361C4F814902046E6767D
:108A400014F0A4FE05A815F031F8FDEEE87AF7223F
:108A50003B4600926FF013013C2217EE900A14F08F
:108A600007FF8B498B4B0F70024602A81A6015F066
:108A70001DF8894FDFF84892D7ED007AF4EE487A76
:108A8000F1EE10FA0CD1D9F80030AB4208D111F058
:108A900009FDC8F8000009B0BDEC028BBDE8F08FFD
:108AA000B2EE040A28EE008AC9F80050B5EEC08A7A
:108AB000F1EE10FA18EE100A76DB15F0D1FD704BCE
:108AC000002215F06FFC16F0D3F815F0B7FD60A387
:108AD000D3E9002315F01CFE16F0F2F8694CDFF81C
:108AE000DCB1844600262A23CDE900361F22C7F8D0
:108AF00000C02046C32105F019F997ED000A02A82D
:108B0000022114F05FFF049902A8013915F09EF8C4
:108B10004FF0010A614B02992361C4F814B084F844
:108B20001BA0204614F032FED9F800302946B3F5D8
:108B30007A7F4FF00A0205A8B4BFD225CA2514F0E7
:108B40000DFF4823059963822582C4F814B084F888
:108B50001BA0204614F01AFE05A814F0A7FFD7EDBD
:108B6000007AFDEEE77AF72417EE900A3346314695
:108B70000094642214F07CFE494B009402461A6073
:108B8000D9F8000033464FF496624FF4487114F060
:108B90006FFE01464348444A444B067002A81160E8
:108BA0001E7014F083FF72E715F05AFD344B00225B
:108BB00015F0F6FB16F05CF815F040FD24A3D3E9A0
:108BC000002315F0A5FD87E74CF2D2510020FFF7F6
:108BD000E1FC48F21E410120FFF7DCFC4CF67B5122
:108BE0000220FFF7D7FC09B0BDEC028BBDE8F08F87
:108BF0002F4808F0F9F92E48F0EE408A08F04AFABA
:108C000010EE100A15F02CFD15A3D3E9002315F082
:108C10007FFD16F02DF8174B1B780546002B3FF40F
:108C2000ACAE244808F06CFCB0EE408AA7E615F024
:108C300017FD134B002215F0B3FB16F019F815F0D1
:108C4000FDFC03A3D3E9002315F062FDBAE600BFE3
:108C50009A9999999999B93F6666666666127140C4
:108C60007B14AE47E17A843FA26400203860002084
:108C7000A46400209964002000000000B464002077
:108C80000000E03FACA0002056002E005A00480033
:108C9000A364002040710020A8640020CC002E00B6
:108CA000E470002098640020C07000208C640020D4
:108CB0006CA0002034A00020F07000207F9E7F9EDA
:108CC000B87000202DE9F04F85B0344EDFF8D88021
:108CD000DFF8D8A003914227834611E0039B2AB214
:108CE000CDE900C30D2305F021F83388A8F8003042
:108CF0002B4B02360F37B342BFB208F1020846D001
:108D0000BBF1000FB6F9004009DD94FBFBF4A401B0
:108D100024B2402CA8BF402424EAE4743480B8F97B
:108D20000050A542E4D0AAB21FFA84FE1546A2EB79
:108D30000404AEEB020C23B20FFA87F9C2F1A302CE
:108D400005F1A3054FEA4C0C029312B24FF00D034C
:108D500049465046A5EB0E050FFA8CFCA4B2BDDBCC
:108D600000250195029D009504F0E0FF3288013452
:108D7000002324B2A332019300940D23494612B27A
:108D8000504604F0D3FF3388A8F80030B0E7054B15
:108D900000221A7005B0BDE8F08F00BF6C6400209F
:108DA0008C6400209E6400204C640020ACA0002055
:108DB0002DE9F043A24D2B68002B87B00ADCA14BB4
:108DC0001C78002C74D0A04C2378002B66D107B0FF
:108DD000BDE8F0839D4F11F065FB9D4B3A681B6821
:108DE000801A984274D89B484FF480710DF010FCA3
:108DF00000284ED19748984C012303F00702012A1E
:108E00004FEAE30130F9022F35D0002A34F811601F
:108E1000B8BF524201333244802B24F81120ECD1E8
:108E20008D4F00264FF0400812E0B7F90000CDF852
:108E300000800CFB000014F01BFD002825DB4028FF
:108E4000A8BF402000B20F2E388022D00136023752
:108E500000234FEA660C32221946002EE5D1CDF8E8
:108E60000080B4F900003346314614F001FD0028BB
:108E7000E5DA3E80EAE7002A03F10103B8BF524277
:108E8000802B24F81120B8D1CAE700200F2E38809B
:108E9000DCD16D4C0122002322702B604DF6B561B0
:108EA0000020FFF70FFF0023237007B0BDE8F08319
:108EB0006A486B4B43614FF07812012369490261A4
:108EC000C37614F063FC604B1C7007B0BDE8F08300
:108ED000654E47F230544FF47A694FF0000804E0D1
:108EE00014F042FFB9F1000F21DD2B68002BF7D001
:108EF0002B68002BF4D02B68002B40F38F80554952
:108F000009F1FF39002331F9022B28689442A9EBBB
:108F1000030CA8BF144601339642B8BF16469842C8
:108F2000F1DCE146B9F1000FC5F80080DDDC301B53
:108F300015F084FB41EC100B0FF09EFB3EA3D3E930
:108F4000002351EC100B15F0E3FB15F091FE00220D
:108F50001223CDE900320446162340482022562130
:108F600004F0E4FE092C5BDD642CB4BF4FF05E0915
:108F70004FF05609394EDFF8F8800A22214603A83F
:108F800014F0ECFC3023364A73820123F37603A9F4
:108F90007261A6F81090304614F0D4FB03A814F0C8
:108FA00085FDD8F800309C4202DC304B1B788BB337
:108FB00012230022CDE90032284816232022C9219D
:108FC00004F0B4FE3B682BB3DFF8A09099F80030B2
:108FD0004BB3D8F80040092C28DD642CB4BF4FF007
:108FE000D1084FF0C90821460A2203A814F0B6FCA4
:108FF000302401231A4AF37603A972611748A6F8B0
:109000001080748214F09EFB03A814F04FFD00231F
:1090100089F8003011F046FA3860E4E6CC4680E783
:109020004FF06409A6E7C8F80040D4E74FF0D7082E
:10903000D9E700BFAFF30080CDCCCCCCCCCC354051
:10904000347100209F6400209E640020FC7000208A
:1090500060600020447100206C640020ACA00020FF
:109060007F9E7F9EB4160400D08AFFFF9C64002080
:109070002C71002010B5044614F05EFE204610BD91
:109080002DE9F84FDFF8F0B29F4CDFF8F0A2DFF8DF
:10909000F092DFF8F0829D4E9D4F9E4D5223584630
:1090A0000A22062102F086FE22465146584616F054
:1090B00031F9522348460822012102F07BFE224664
:1090C0005146484616F026F94FF0FF334046052238
:1090D000062105F0B1FB22468F49DFF8ACA24046DD
:1090E00016F018F98D488E494FF000082246C0F856
:1090F000008016F00FF93146384607F0D3FC2246BF
:109100008849384616F006F93146874807F0CCFF03
:109110008649874814F0BAFB22468649844816F0EF
:10912000F9F88549284614F0B1FB844905F10C0093
:1091300014F0ACFB824905F1180014F0A7FB81493B
:1091400005F1240014F0A2FB7F4905F1300014F072
:109150009DFB7E4905F13C0014F098FB7C4905F12C
:10916000480014F093FB7B4905F1540014F08EFB8A
:1091700022467949404616F0CDF878487849A0F85B
:109180000480002600274FF0010B232540F201192F
:109190002246C0E90267C0E90667C0E90A67C0E97C
:1091A0000E67C0E91267C0F81080A0F81480C0F8FC
:1091B0002080A0F82480C0F83080A0F83480C0F867
:1091C0004080A0F84480C0F8508080F879B080F8E2
:1091D00089B0C0F800A0C0F88C50A0F8909016F0AC
:1091E00099F860485E49A0F804802246C0E9026709
:1091F000C0E90667C0E90A67C0E90E67C0E91267FF
:10920000C0F81080A0F81480C0F82080A0F8248056
:10921000C0F83080A0F83480C0F84080A0F84480C6
:10922000C0F8508080F879B0C0F800A080F889803C
:10923000C0F88C50A0F8909016F06CF84A48484955
:10924000A0F8048002232246C0E90267C0E906674D
:10925000C0E90A67C0E90E67C0E91267C0F810806C
:10926000A0F81480C0F82080A0F82480C0F83080D6
:10927000A0F83480C0F84080A0F84480C0F8508046
:1092800080F879B0C0F800A0C0F88C50A0F8909099
:1092900080F8893016F03EF83448314980F879B0CA
:1092A0000723224680F88930C0E90267C0E90667D3
:1092B000C0E90A67C0E90E67C0E91267A0F8048038
:1092C000C0F81080A0F81480C0F82080A0F8248096
:1092D000C0F83080A0F83480C0F84080A0F8448006
:1092E000C0F85080C0F800A0C0F88C50A0F8909052
:1092F00016F010F81E480EF06DFF22461C481D495E
:10930000BDE8F84F16F006B80060002010A100205C
:109310006CA00020BC630020C96202001CA00020D9
:109320002DEB0200F50A030034A0002038170400DA
:10933000B49D0020ADDA0300D4160400DC1604004E
:10934000E4160400EC160400F4160400FC160400F5
:109350000417040008170400D1620200C09D002019
:10936000C5620200589E0020F09E0020889F0020C9
:1093700044A00020CD6202003464002011BE02002F
:109380001C640020ACA00020643304000000000036
:109390002DE9F04FCE48DFF88893CE4FCE4CDFF862
:1093A00084838FB006F0BEFDCC49C94806F070FE3C
:1093B0000121092014F05AF9DFF86CE3DFF86CC3DF
:1093C000C749C84BC8480025012600952A468EF893
:1093D0000050CCF800503E700D601D603146802377
:1093E000057089F80050C148DFF84493C04F02F07F
:1093F000E5FFBE4800952A468023022102F0DEFFE9
:109400002A4680230321B948009502F0D7FFB748C8
:1094100002F01EFDDFF81CE3DFF81CC3B54AB64BB3
:10942000B648B74989F800508EF800508CF80050C3
:10943000DFF808E3DFF808C33D6015601D60B14A3E
:10944000B14BDFF80093B14F05600D602046B04985
:109450008EF800508CF8005015701D704FF0160AF1
:10946000C9F800503D704FF00B0904F0D5FA4FF2E7
:10947000B3772946204603F087FB3246CDE90197B2
:109480002046CDF800A040F221131A2103F04CFD34
:109490004FF0200BCDE90197CDF800A0204640F217
:1094A0002113D8221A214FF0420A03F03DFD324623
:1094B0003146029720464423CDE900AB03F034FD4A
:1094C0003146CDE901B720464423AB22CDF800A0B8
:1094D00003F02AFDC1231722204600933B211823C5
:1094E000CDE9019503F020FDD8F8000015F0A6F8AD
:1094F000884B002215F00CF973A3D3E9002306462C
:109500000F4615F081FB10B96FA7D7E90067394600
:10951000304615F0ADFB804D804B8246286803EA4B
:109520000A2A15F08BF87B4B002215F0F1F866A3A0
:10953000D3E9002306460F4615F066FB10B962A773
:10954000D7E900673946304615F092FBDFF8F8910D
:10955000C00000F4FC63D9F800004AEA030A15F0E1
:109560006DF86C4B002215F0D3F857A3D3E9002314
:1095700006460F4615F048FB10B953A7D7E9006718
:109580003946304615F074FB4AEAE00080B24C23BD
:10959000CDE9003027223A234F48012104F0C6FBD1
:1095A000D8F8000015F04AF85A4B002215F0B0F830
:1095B00045A3D3E9002306460F4615F025FB10B955
:1095C00041A7D7E900673946304615F051FB534BA8
:1095D0000246286803EA022515F030F84D4B0022B8
:1095E00015F096F838A3D3E9002306460F4615F088
:1095F0000BFB10B934A7D7E900673946304615F0A0
:1096000037FBC00000F4FC63D9F800001D4315F0DF
:1096100015F8404B002215F07BF82BA3D3E900236B
:1096200006460F4615F0F0FA10B927A7D7E90067EC
:109630003946304615F01CFB45EAE00080B237237E
:10964000CDE9003093222448DFF800A13A2301211C
:1096500004F06CFB18234FF2B3720025CDE9003201
:109660001D483A237722012104F060FB1A48009537
:109670003A232322012104F051FC174800953A2394
:109680002422012104F04AFC134800953A232522A4
:10969000012104F043FC104800953A2326220121C1
:1096A00004F03CFC0C4800953A232722012104F0E9
:1096B00035FC094800953A232822012104F02EFCAC
:1096C0000548009544E000BF0000000000E06F4046
:1096D00010A1002097640020ACA00020A08601000B
:1096E00030710020CC700020A06400203464002081
:1096F000407100203C710020E4700020E0700020E8
:10970000C0700020A5640020A76400208C640020A5
:109710008C1804000000FC3FD470002000F8FFFF0C
:10972000A2640020D8700020DC7000203871002076
:109730008F640020906400209164002098640020D1
:10974000A3640020BC700020D07000207F9E7F9E0C
:109750003A23C922012104F0E1FBBF4800953A23D6
:10976000CA22012104F0DAFBBB4800953A23CB2240
:10977000012104F0D3FBB84800953A23CC22012103
:1097800004F0CCFBB44800953A23CD22012104F02B
:10979000C5FBB14800953A23CE22012104F0BEFB5F
:1097A000AD4800951623D8224FF4947104F076FC4E
:1097B000A94800951623D82240F2291104F06EFC26
:1097C000A54800951623D8224FF4957104F066FC45
:1097D000A14800951623D82240F22B1104F05EFC1C
:1097E0009D4800951623D8224FF4967104F056FC3C
:1097F000994800951623D82240F22D1104F04EFC12
:109800001623CDE90035012293484523E82104F0D1
:109810008DFA01264FF005080B2748F21E4B8F4B9F
:109820008F498D482361C4F814A0E67613F0AEFF8B
:10983000894800970E2327224C21CDE9018B03F0A4
:1098400073FB854800970E233F224C21CDE9018B05
:1098500003F06AFB49F67F697F4800970E23572281
:109860004C21CDE9018B03F05FFB7B48CDF80890DC
:109870000E232722A221CDE9007803F055FB76487C
:1098800000970E233F22A221CDE9018903F04CFB72
:10989000714800970E235722A221CDE9018903F0D8
:1098A00043FB57220E236C480097FC21CDE9018928
:1098B00003F03AFB6B49684804F0AEF86A490BA81C
:1098C00013F0FEFF694B644823610BA96561E676DE
:1098D00013F038FF0BA814F0E9F8654D654B6649A5
:1098E0005D482361E676656113F050FF634B644980
:1098F000594823616561E67613F048FF614B624980
:10990000554823616561E67613F040FF5A464B46A1
:109910003221D520FDF7A0FA5C4B5D494E4823610A
:10992000C4F814A0E67613F031FF9FED490B022135
:109930000BA814F085F8574B474823610BA9C4F8CE
:1099400014A0E67613F0FEFE0BA814F0AFF852490F
:1099500008A813F09BFF514905A813F097FF05A92C
:1099600008A814F017F901460BA813F0A9FF4C4BF7
:10997000394823610BA9C4F814A0E67613F0E2FE7F
:109980000BA814F093F805A814F090F808A814F0A8
:109990008DF8444B1B78002B00F04381DFF82081C9
:1099A0002D4898F800304EF631654CF67B56002B6A
:1099B00014BF2B46334611222227CDE901230097FD
:1099C00071237722462103F0AFFA98F80030009710
:1099D000002B08BF354601951F48122377224621E8
:1099E00004F0A4F9304B2361002201232F491A48C7
:1099F000E376626113F0CAFE2D4B1B78002B00F05A
:109A00003B814EF6316611232225CDE901361248FD
:109A100000957123A822462103F086FACDE900566D
:109A20000D481223A822462104F080F9214B23611E
:109A30000022012320490848E376626113F0A6FE64
:109A40001E4B1B78002B00F00B813BE0AFF3008036
:109A50000000000000005040ACA00020E500150010
:109A6000101704007C180400B49D002006008A0032
:109A70001E841E84650032001C17040065004B0024
:109A800024170400650064002C170400B9004B0083
:109A900030170400CC0064003C1704004817040091
:109AA000EB006400A46400204E008E0050170400F8
:109AB000936400204E00BF00581704009F640020EC
:109AC000996400204EF6316611232225CDE9013636
:109AD0007548009571237722C02103F025FACDE95E
:109AE0000056714812237722C02104F01FF96F4BF2
:109AF0002361002201236E496B48E376626113F013
:109B000045FE6C4B1B78002B00F09E804EF63166B4
:109B100011232225CDE90136634800957123A8223F
:109B2000C02103F001FACDE900565F481223A822B4
:109B3000C02104F0FBF8604B2361002501235F493D
:109B40005948E376656113F021FE57480095542388
:109B50007722982104F0A2FA5348009554237722E3
:109B6000992104F09BFA50480095542377229A21BA
:109B700004F094FA4C480095542377229B2104F07A
:109B80008DFA49480095542377229C2104F086FAE7
:109B900045480095542377229D2104F07FFA4248DE
:109BA0000095542377229E2104F078FA3E480095D0
:109BB0005423772240F2131104F070FA3A480095CA
:109BC000542377224FF48A7104F068FA36480095DE
:109BD0005423772240F2151104F060FA32480095C0
:109BE000542377224FF48B7104F058FA2E480095D5
:109BF0005423772240F2171104F050FA2A480095B6
:109C0000542377224FF48C7104F048FA26480095CB
:109C10005423772240F2191104F040FA0FB0BDE846
:109C2000F08F274B1B789BB34CF67B5611232225D4
:109C3000CDE901361C48009571237722462103F0B7
:109C400073F9CDE90056C7E622234CF2D252CDE992
:109C5000003215485223A822C02104F067F86AE7B1
:109C600022234CF2D252CDE900320F485223772200
:109C7000C02104F05BF83AE722234CF2D252CDE93E
:109C8000003209485223A822462104F04FF8CDE6BD
:109C900022234CF2D252CDE90032034851237722DD
:109CA000462104F043F89DE6ACA00020C8008E00D9
:109CB00064170400A6640020C800BF006C170400ED
:109CC0009964002070B5574D82B010F0EBFB564BF5
:109CD0002A681B68801A984264D8544C2378002B59
:109CE00051D1534806F0B0FB524806F0ADFB524844
:109CF00006F0AAFB514806F0A7FB0A20FCF754FD2A
:109D00000820FCF751FDFDF71DF84D4B1B78002B8B
:109D10002BD1FCF7D7FF4B4B1B78EBB9FEF70CFEB2
:109D2000494B1B780BB1FFF743F8484B1B7873B1D5
:109D3000474B1B78002B59D010F0B4FB454A464BDB
:109D400012681B78801A984201D9FCF7B5FB434B87
:109D50001B789BB902B070BDFDF7AEFCFEF7ECFDC1
:109D6000394B1B78002BDED1DFE7FDF7F5F8FCF768
:109D7000A9FF344B1B78002BD0D0EDE702B0BDE833
:109D80007040FCF7B3BA3648012102F03DFB0028D1
:109D9000E0D0334802F0B8FB314802B0BDE8704073
:109DA00002F056B82F4E214C30460EF051FA23786F
:109DB000B6F908203BB92C4B1B6893422FDC10F0FE
:109DC00071FB28608AE7284B1B689342F7DA00266C
:109DD00031462648267004F09FFE2549254A264B29
:109DE0000E6016601E60FFF7D3FAE8E71F4C019380
:109DF00028232046009350224623962103F096FF05
:109E00001E4B1F4A23610123E3761E4962612046EF
:109E100013F0BCFC114B1B78002B9BD0AEE7FCF77A
:109E200007FCCCE7F870002058600020A1640020F7
:109E3000C09D0020589E0020F09E0020889F00209A
:109E400097640020A06400209D640020A564002089
:109E5000A6640020EC70002075600020A76400203C
:109E60003464002044A000205C600020ACA00020EE
:109E7000247100201C710020147100206E00A900C4
:109E8000C8FEC8FE941604002DE9F04F1448154C86
:109E9000154F164E164D85B006F044F8154910487A
:109EA00006F0F6F8144B15481A78154982F00102AD
:109EB0001A700023237003700B70124C1248134960
:109EC0003B6033602B70237003700B60002A00F03E
:109ED000EE830F4E3578EDB105B0BDE8F08F00BFD1
:109EE00010A10020A064002030710020CC70002060
:109EF000A5640020A08601008F6400209D640020DE
:109F000097640020A7640020DC70002038710020D6
:109F1000A2640020DC48009560238022012102F029
:109F20004DFA2A46D84800958023022102F046FACD
:109F30002A4680230321D4480095D44C02F03EFAEF
:109F4000D14801F085FF2946092013F08FFB4FF01F
:109F500001092046294686F8009019274FF2B3766A
:109F600002F012FE7123CDE90176204600932946C6
:109F700055236FF0180202F0D7FFAC23CDE901762C
:109F800020460093294655235D2202F0CDFF00961E
:109F900020464FF494735422182103F0BFFF00961B
:109FA00020464FF494735522182103F0B7FF009612
:109FB00020464FF494735622182103F0AFFF009609
:109FC00020464FF494735722182103F0A7FF009600
:109FD00020464FF494735D22182103F09FFF0096F2
:109FE00020464FF494735E22182103F097FF0096E9
:109FF00020464FF494735F22182103F08FFF0096E0
:10A0000020464FF494736022182103F087FF052641
:10A010005723CDE900362046029528236FF002022F
:10A02000322102F081FF9423CDE90165204600939F
:10A0300061222823322102F077FF20460095102369
:10A040005322792104F02AF8204600951023532248
:10A050007A2104F023F82046009510235322F121A1
:10A0600004F01CF82046009510235322F22104F03E
:10A0700015F820462946009532230C2203F04EFFA6
:10A0800020462946009532230D2203F047FF204643
:10A090002946009532230E224FF6C86603F03EFF94
:10A0A0002D23CDE900362046294632230F2203F026
:10A0B0003DFE2046294600953223392203F02EFF2B
:10A0C00020462946009532233A2203F027FF4FF01D
:10A0D000080820462946009532233B2203F01EFF44
:10A0E0002046CDF800801E23562201957B2103F0E7
:10A0F0001DFE2046664903F08FFC664A664B6749A1
:10A1000084F81B90C4E904232046102713F03EFB7B
:10A110004CF2D25B2046624903F07EFCCDF804800D
:10A12000204600973B46CDF808B01F22462102F09A
:10A13000FBFE4FF02A0ACDE9018B00973B462046F3
:10A140003922462102F0F0FE434620460195CDF823
:10A1500000A01F22502103F0E9FD48F21E42CDE984
:10A1600000783B4620460292B9211F2202F0DCFE15
:10A170004CF67B52CDE900783B4620460292B9214D
:10A18000392202F0D1FE1F2243462046CDF800A01E
:10A190000195C32103F0CAFD424F434B2361676120
:10A1A000424984F81B90204613F0F0FA404B676157
:10A1B0002361404984F81B90204613F0E7FA3E4A99
:10A1C0003E4B3F4984F81B90C4E90423204613F01A
:10A1D000DDFA3C4A3C4B3D4984F81B90C4E904231A
:10A1E000204613F0D3FA00962046F8236C223D2136
:10A1F00003F094FE00962046F82384223D2103F0CC
:10A200008DFE00962046F8239A223D2103F086FE1B
:10A2100000962046F823B2223D2103F07FFE0096EF
:10A220002046F823C8223D2103F078FE0096204600
:10A23000F823E0223D2103F071FE0096204618230A
:10A240006C223D2103F02AFF0096204618239A2213
:10A250003D2103F023FF009620461823C8223D210C
:10A2600003F01CFF0096204618236C224FF49A71CD
:10A2700003F014FF0096204618239A224FF49A7197
:10A2800003F00CFF24E000BF34640020ACA00020E9
:10A290008C180400F4001400C8FEC8FE5017040017
:10A2A0007C180400D2C5D2C578002E0074170400B3
:10A2B000780048007C170400F0002E001E841E84E5
:10A2C00084170400F00048007BCD7BCD901704007C
:10A2D000009620461823C8224FF49A7103F0DEFE40
:10A2E0000096204618236C227B2103F0D7FE0096AF
:10A2F000204618239A227B2103F0D0FE00962046A8
:10A300001823C8227B2103F0C9FE0096204618239B
:10A310006C22B92103F0C2FE0096204618239A222F
:10A32000B92103F0BBFE009620461823C822B921AC
:10A3300003F0B4FE0096204618236C22F72103F0A8
:10A34000ADFE0096204618239A22F72103F0A6FEC0
:10A3500046F66228009620461823C822F72103F00B
:10A360009DFE2046CDF80080F8238A223D2103F08F
:10A37000D5FD2046CDF80080F823B8223D214FF6C8
:10A38000FF7703F0CBFD2046CDF80080F823E622CE
:10A390003D21032603F0C2FD2046009702239022B0
:10A3A0003A2103F0BBFD20463346019700968F22E9
:10A3B0003D2103F0BBFC2B4620468F223D2104F0BB
:10A3C00055F82B46204691223F2104F04FF83346A2
:10A3D0002046CDE900678F22412103F0A7FC2B46E0
:10A3E00020469022422104F041F833462046CDE930
:10A3F00000678F227A2103F099FC2B462046902299
:10A400007B2104F033F833462046CDE900678F22E4
:10A41000B72103F08BFC2B4620468F22B72104F096
:10A4200025F82B4620469122B92104F01FF8334627
:10A430002046CDE900678F22BC2103F077FC2B4634
:10A4400020469022BD2104F011F8204600970223F7
:10A450008F22F52103F022FE3346204600978F22FB
:10A46000F72103F01BFE3B4620469022F62103F025
:10A47000FDFF33462046CDE900678F22FA2103F025
:10A4800055FC2B4620469022FB2103F0EFFF0222D1
:10A49000334620460092019790224FF4997103F0C1
:10A4A00045FC3B4620468F224FF4997103F0DEFFB6
:10A4B00033462046CDE900678F2240F2371103F082
:10A4C00035FC2B46204690224FF49C7103F0CEFFC2
:10A4D00033462046CDE90067BD223E2103F026FC2D
:10A4E0002B462046BE223F2103F0C0FF33462046C4
:10A4F000CDE90067BD22782103F018FC2B462046E9
:10A50000BD22782103F0B2FF2B462046BF227A21DC
:10A5100003F0ACFF33462046CDE90067BD227C2125
:10A5200003F004FC2B462046BD227E2103F09EFF53
:10A530002B462046BF227C2103F098FF334620465D
:10A54000CDE90067BD22B72103F0F0FB2B46204682
:10A55000BD22B92103F08AFF2B462046BF22B72136
:10A5600003F084FF33462046CDE90067BD22BC21BD
:10A5700003F0DCFB2B462046BE22BD2103F076FF14
:10A58000334620460097BD22F52103F0C7FC3B4629
:10A590002046BE22F72103F069FF3B462046BF223A
:10A5A000F62103F063FF33462046CDE90067BD2264
:10A5B000F92103F0BBFB2B462046BD22FB2103F013
:10A5C00055FF2B462046BF22F92103F04FFF3346AB
:10A5D00020460097BD224FF4987103F05FFD33468B
:10A5E0002046CDE90067BD2240F2331103F09EFB07
:10A5F0002B462046BE224FF49A7103F037FF3346B4
:10A600002046CDE90067BD2240F2371103F08EFBF2
:10A610002B462046BE224FF49C7103F027FF3346A1
:10A620002046CDE90067EB22392103F07FFB33465A
:10A630002046CDE90067EB223D2103F077FB2B4656
:10A640002046EC223A2103F011FF33462046CDE9A3
:10A650000067EB22412103F069FB2B462046EC22E8
:10A66000422103F003FF3B4600954FF46172EB215A
:10A670007520FDF7D3FC3B4600954FF47A72EB2131
:10A68000B320FDF7CBFC3B46009540F24C42EB215A
:10A69000F320FDF7C3FC3B4600954FF49662EB2197
:10A6A0004FF49770FDF7BAFC05B0BDE8F08F05B028
:10A6B000BDE8F04FFEF76CBE2DE9F04FDFF8F0C3B8
:10A6C000DFF8F0E3DE4ADF49DFF8ECB3DFF8ECA3B4
:10A6D000DFF8EC93DFF8EC83DB48DC4FDC4C85B033
:10A6E0000025802600962B468EF800508CF80050EE
:10A6F00015600D602A468BF800508AF8005089F8E2
:10A70000005088F80050012101F058FE00962B46B9
:10A710002A46CD48DFF8B0A3DFF8B093DFF8B08366
:10A72000022101F04BFE2B462A4600960321C64823
:10A73000C84E01F043FEC44801F08AFBC648DFF86A
:10A7400094E3DFF894C3C54AC54BC6490560384653
:10A75000CEF80050CCF8005015701D70CAF80050AB
:10A76000C9F80050C8F8005035700D7005F0DAFBDC
:10A770003846BD4905F08CFC2946204602F004FA13
:10A780004FF6C8691527ED23CDE9017920460093DE
:10A7900003224623012102F0C7FB0826ED23009384
:10A7A00020463B46019602950B22332102F0BCFB6A
:10A7B00049F67F6238234FF00408CDE90032204685
:10A7C00032233E22012103F0B1FA2046CDF8008069
:10A7D000019533233A22012103F0A8FACDE900853F
:10A7E000204633237622012103F0A0FACDE900852B
:10A7F00020463323B322012103F098FACDE9006902
:10A800002046372303221A2103F090FACDE900698C
:10A81000204695230322592103F088FACDE90069E7
:10A8200020464A230322F62103F080FA282348F227
:10A83000B7370D2620460093CDF804901923C8227F
:10A84000012103F073FACDE90067204620233E2260
:10A85000432103F06BFACDE90067204620237A22DA
:10A86000432103F063FACDE9006720462023B72295
:10A87000432103F05BFACDE90067204620233E2206
:10A88000BA2103F053FACDE90067204620237A224B
:10A89000BA2103F04BFA4CF67B5300962046019305
:10A8A0003E225023662103F041FA4CF67B53CDE95A
:10A8B0000063204650237A22662103F037FA4CF6D3
:10A8C0007B53CDE9006320465023B722662103F075
:10A8D0002DFA4CF67B53CDE9006320465F233E22E0
:10A8E000DD2103F023FA4CF67B534FF6186ACDE9CD
:10A8F00000634FF0270B20465F237A22DD2103F00F
:10A9000015FACDE900BA204620234F22432103F057
:10A910000DFACDE900BA204620238B22432103F013
:10A9200005FA2823CDF804A0009320462023C8224E
:10A93000432103F0FBF9CDE900BA204620234F2242
:10A94000BA2103F0F3F965238B22CDF804A0204649
:10A950000093BA21202303F0E9F92046434903F08C
:10A960005BF8434B23614FF0010A4FF0FF3341493D
:10A970006361204684F81BA012F008FF20463E4980
:10A9800003F04AF83D4B3E4923612046656184F857
:10A990001BA012F0FBFE3B4B3B4923612046656147
:10A9A00084F81BA012F0F2FE384B3949236120468F
:10A9B000656184F81BA012F0E9FE364B364923612D
:10A9C0002046656184F81BA012F0E0FE334B236142
:10A9D0003349344B636120464FF0030B84F81BA0CE
:10A9E00012F0D4FE304B2F4A304962612046236179
:10A9F00084F81BA012F0CAFE20465B460195CDF8F4
:10AA000000B04622562103F091F95B462046CDE97D
:10AA100000B546225A2103F089F93B4620464722D9
:10AA2000572103F023FD5B462046CDE900B54622C1
:10AA30005E2103F07BF93B46204647224EE000BFF3
:10AA400030710020CC7000203464002010A1002060
:10AA5000ACA0002098640020407100208C6400208D
:10AA6000A5640020A3640020A08601008C180400C7
:10AA7000DC002B009C1704007C1804000900CC00AB
:10AA8000AC17040004004F00B41704000400600079
:10AA9000BC17040004007200C41704004600230021
:10AAA000CC1704001E841E8446003600E017040004
:10AAB000916400209064002097640020A06400202E
:10AAC000A26400208F6400203C710020E47000200C
:10AAD000E0700020C0700020BC7000205F2103F0F7
:10AAE000C5FC00972B464FF4617282215620FDF77A
:10AAF00095FA00972B464FF47A72BE215320FDF74A
:10AB00008DFA00972B4640F24C424621CD20FDF7AE
:10AB100085FA00972B464FF496628221CB20FDF7F1
:10AB20007DFA2B46CDF800904FF4966206217F20E7
:10AB30004FF6FF77FDF772FA2B46CDF800904FF4F1
:10AB40007A7206219620FDF769FA204600970B23BA
:10AB50009A2240F2111102F01FF943462046009755
:10AB6000CE22F92102F018F9434620460097CE2262
:10AB70004FF4957102F010F9CDE9006720462E23BD
:10AB8000B222FA2103F0D2F84FF478463523CDE90A
:10AB9000003620460A23A5224FF4867103F0C6F83A
:10ABA000CDE9008620460A238D224FF4867103F0FA
:10ABB000BDF828230196009320460623B2224FF4C5
:10ABC000837103F0B3F828230196009320460623EF
:10ABD000B2224FF48B7103F0A9F80F2320460093A3
:10ABE00001970623C0224FF4877101F009FFCDE9D8
:10ABF000008743462046A92240F20F1103F096F841
:10AC0000CA23BE264FF0CB08204600930197F823B5
:10AC1000BF22FA2101F0FEFD204642460197009630
:10AC20004FF48173FB2101F0F5FD32462046019778
:10AC3000CDF800804FF494734FF48F7101F0EAFD6A
:10AC400032462046CDE9008740F22B1340F227110F
:10AC500001F0E0FD14232046009301971A23DA2225
:10AC60004FF4827103F062F840F20313ED21FE22EB
:10AC7000029100912046019219460397DA2202F0D0
:10AC8000D9FA4FF48F73ED2140F223120291009113
:10AC90002046019219460397DA2202F0CBFA48F2D5
:10ACA0001E432046009362225023662103F036F9AA
:10ACB0004CF2D253204600939E225023662103F08B
:10ACC0002DF94CF67B53009320465023DB2266215E
:10ACD00003F024F94EF63163009320465E2362228E
:10ACE000DD2103F01BF9034A034B15701D6005B00D
:10ACF000BDE8F08FDC700020387100202DE9F04FA6
:10AD00003E4885B005F00EF93D493C4805F0C0F9D4
:10AD10000FF0C8FB3B4B3C4A1B6812683B49C31A07
:10AD2000002BB8BF5B429342086037DB384B394891
:10AD30001A783949394D3A4C3A4F3B4E82F001026C
:10AD40001A70002303700B70384839492B70237038
:10AD500003600B60374D384C384839492B6023600D
:10AD600003600B60374D384C384839493B703360CD
:10AD70002B70237003700B705AB1364B1C78C4B122
:10AD8000DFF8F89099F80050002D79D005B0BDE8B3
:10AD9000F08F05B0BDE8F04FFEF7FABA2C4B012159
:10ADA0000920197012F062FC05B0BDE8F04FFFF702
:10ADB00083BC294E0FF076FB284B32681B68801A43
:10ADC0009842E3D9264D2146284601F0DDFE0124B4
:10ADD000244A254B25492A616B612846EC7612F0FE
:10ADE000D5FC234A234B2449EC76C5E904232846A5
:10ADF00012F0CCFC0FF056FB3060C7E710A100202A
:10AE0000A0860100C870002070600020C47000207F
:10AE100090640020A2640020976400209D640020BC
:10AE2000A5640020DC7000203871002040710020F3
:10AE30003C710020E4700020E0700020C070002011
:10AE4000BC70002098640020A36400208C64002063
:10AE5000A764002093640020007100206C60002033
:10AE6000ACA00020D3001500C8FEC8FE581704008F
:10AE70006E00A9007F9E7F9EF4170400A06400204E
:10AE80002A46B64800958023012101F097FAB3487D
:10AE9000009560238022022101F090FA2A46802347
:10AEA0000321AE480095AE4CAE4F01F087FAAB4897
:10AEB00000F0CEFF2946092001264FF2B37812F0A8
:10AEC000D5FB4FF0190B204629464FF08C0A89F824
:10AED000006001F059FECDE901B820462946CDF8C1
:10AEE00000A064236FF0180202F01EF8CDE901B84B
:10AEF00020462946CDF800A06423782202F014F8F9
:10AF0000CDF8008020464FF494737022182103F08E
:10AF100005F8CDF8008020464FF494737122182173
:10AF200002F0FCFFCDF8008020464FF494737222AB
:10AF3000182102F0F3FFCDF8008020464FF49473FF
:10AF40007322182102F0EAFFCDF8008020464FF46A
:10AF500094737822182102F0E1FFCDF8008020469A
:10AF60004FF494737922182102F0D8FFCDF80080B5
:10AF700020464FF494737A22182102F0CFFFCDF8C7
:10AF8000008020464FF494737B22182102F0C6FF04
:10AF90004FF005087323CDE90038204602953C2385
:10AFA0006FF00202322101F0BFFF7D2320460093A3
:10AFB000CDE901853C237C22322101F0B5FF2046FA
:10AFC000009510236E22792103F068F82046009541
:10AFD00010236E227A2103F061F820460095102399
:10AFE0006E22F12103F05AF82046009510236E22BC
:10AFF000F22103F053F820462946009532231C2203
:10B0000002F08CFF20462946009532231D2202F0D3
:10B0100085FF20462946009532231E2202F07EFF3E
:10B020004FF6C8622E23CDE900322046294632234E
:10B030001F2202F07BFE20462946009532234D2236
:10B0400002F06CFF20462946009532234E2202F082
:10B0500065FF20462946009532234F2202F05EFF0D
:10B0600008232046009372221E2301957B2102F0C3
:10B070005DFE20463C4902F0CFFC3C4A3C4B3D493A
:10B08000E676C4E90423204612F080FB20463A49C4
:10B0900002F0C2FC394B3A49E676C4E9043720464F
:10B0A00012F074FB374B2361374967612046E6761F
:10B0B00012F06CFB354B2361354967612046E6761B
:10B0C00012F064FB334B2361334967612046E67617
:10B0D00012F05CFB314B2361314967612046E67613
:10B0E00012F054FB2F4B23612F4967612046E6760F
:10B0F00012F04CFB2D4B23612D4967612046E6760B
:10B1000012F044FB2B4B23612B4967612046E67606
:10B1100012F03CFB294B2361294967612046E67602
:10B1200012F034FB274B2361274967612046E676FE
:10B1300012F02CFB254B2361254967612046E676FA
:10B1400012F024FB234B244967612046E6762361F5
:10B1500005B0BDE8F04F12F019BB00BF3464002009
:10B16000ACA000201E841E848C180400D30015009F
:10B17000C8FEC8FE581704007C1804007000300098
:10B180000418040070004A000818040070006300EE
:10B190001018040070009600181804007000B00029
:10B1A000201804007000CA00281804007000E40091
:10B1B00030180400ED00300034180400ED004A009F
:10B1C00038180400ED00630044180400ED009600F8
:10B1D00050180400ED00B000581804002DE9F043A9
:10B1E000CD4885B004F09EFECC49CB4804F050FF1A
:10B1F0000FF058F9CA4BCB4A1B681268CA491B1A90
:10B20000002BB8BF5B4293420860C0F27B82C74A02
:10B21000C74C1378C748C849DFF88CC3C74FC84E1E
:10B22000DFF88883002583F0010313702560056033
:10B230000D70C44CC448C549C54A257005600D60F1
:10B240001560C44CC448C549C54A256005600D60F9
:10B250001570C44CC448C549C54A8CF800503D60BF
:10B260003570257005700D70157088F80050002B32
:10B2700000F03D820121092012F0F8F900952A46DC
:10B28000BC48BD4CBD4F8023012101F097F80095CB
:10B290002A46B8488023022101F090F860238022DA
:10B2A00000950321B34801F089F8B24800F0D0FDC1
:10B2B000204629464FF2B37601F066FC4FF019099B
:10B2C0005B23CDE9019620460093294655236FF074
:10B2D000180201F029FEC223CDE901962046009311
:10B2E00029465523472201F01FFE00962046602381
:10B2F0003F22182102F012FE0096204661233F22D1
:10B300007B2102F00BFE0096204661233F22DF21C5
:10B3100002F004FE0096204660234022182102F02D
:10B32000FDFD00962046612340227B2102F0F6FDC0
:10B330000096204661234022DF2102F0EFFD0096B7
:10B34000204660234122182102F0E8FD00962046A5
:10B35000612341227B2102F0E1FD0096204661231A
:10B360004122DF2102F0DAFD0096204660234222CE
:10B37000182102F0D3FD0096204643234222992152
:10B3800002F0CCFD0096204661234222DF2102F02C
:10B39000C5FD0096204660234722182102F0BEFD1D
:10B3A0000096204643234722992102F0B7FD0096DC
:10B3B000204661234722DF2102F0B0FD009620469F
:10B3C00060234822182102F0A9FD0096204661233F
:10B3D00048227B2102F0A2FD0096204661234822EC
:10B3E000DF2102F09BFD00962046602349221821B0
:10B3F00002F094FD00962046612349227B2102F051
:10B400008DFD0096204661234922DF2102F086FD52
:10B410000096204660234A22182102F07FFD009604
:10B42000204661234A227B2102F078FD00962046C7
:10B4300061234A22DF2102F071FD0A264723CDE96C
:10B4400000360295204628236FF00702322101F0D2
:10B450006BFDAD23CDE90165204600934B222823E7
:10B46000322101F061FD00952046294632238D22CC
:10B4700002F054FD00952046294632238E2202F028
:10B480004DFD00952046294632238F2202F046FDCD
:10B490000095204629463223B02202F03FFD009558
:10B4A000204629463223B12202F038FD009520467D
:10B4B00029463223B22202F031FD4FF6C862202322
:10B4C000CDE90032204632239022294602F02EFC9C
:10B4D00020462B4902F0A0FA01262A4A2A4B226173
:10B4E0006361E6762949204612F050F92046284942
:10B4F00002F092FA274BE676C4E904372649204643
:10B5000012F044F9254A264BE676C4E9042325497E
:10B51000204612F03BF94BE010A10020A08601006C
:10B52000C470002070600020C8700020916400206A
:10B5300030710020CC700020A564002038710020FC
:10B5400097640020A2640020407100203C7100201C
:10B55000E4700020E0700020C0700020BC7000206B
:10B5600098640020A36400208C640020A76400205D
:10B57000A064002034640020ACA000207F9E7F9E49
:10B580008C180400B9001400C8FEC8FE5C18040042
:10B590007C18040064003000F88D04007400300052
:10B5A0001E841E846C180400DC7000209D64002042
:10B5B0005A4B6761E67623615949204612F0E6F856
:10B5C000584A594BE676C4E904235849204612F0FC
:10B5D000DDF8574B6561E67623615149204612F04C
:10B5E000D5F810274FF0080948F21E43CDE9019322
:10B5F000204600973B462122492101F095FCCDE9E8
:10B6000000754B4620462122532102F08FFB4CF659
:10B610007B52CDE900793B4620460292B921212296
:10B6200001F082FC4B462122009701952046C32160
:10B6300002F07CFB3F48404F962106F083F83F49DB
:10B640003C4806F07DF83E4B3A481A68314605F012
:10B650008FFF88F80060061E18BF012646F6622597
:10B6600020460095802361223C213E7002F016FDA9
:10B6700020460095802361223D2102F00FFD2046E7
:10B680000095042360223C2102F048FC20460095EE
:10B690000423E1223C2102F041FC204600950423D2
:10B6A000A1223C2102F03AFC204600958023612231
:10B6B00040F2371102F0F2FC20460095802361220F
:10B6C0004FF49C7102F0EAFC2046009504236022AE
:10B6D0004FF49A7102F022FC009520460423E122E7
:10B6E0004FF49A7102F01AFC05B0BDE8F0831148DE
:10B6F00005F0FCFF134B01221A7005B0BDE8F043C2
:10B70000FDF746BE104B01210920197011F0AEFF64
:10B7100005B0BDE8F043FEF7CFBF00BFD700300053
:10B72000F88D0400E60030007BCD7BCD741804005A
:10B730002600A700CCA100209F64002085BD020048
:10B74000086000209C640020A764002030B58B486E
:10B750008B4DADF2946D00F069FB8A4800F066FBFA
:10B7600000234FF4A0722846F02103F07DF828460C
:10B77000012103F019F884492846002402F04CF90D
:10B780007E48EC7600F0C0FE7E4800F0BDFE7B48AF
:10B79000402100F091FE7B48402100F08DFE012108
:10B7A000102011F0DFFE0121112011F0DBFE01213C
:10B7B000122011F0D7FE0121132011F0D3FE012138
:10B7C0000D2011F0CFFE0121042011F0CBFE01214C
:10B7D000092011F0C7FE0121092011F047FF0121C6
:10B7E000084611F0BFFE2046012111F0BBFE0121E9
:10B7F000022011F0B7FE0121084611F037FF204664
:10B80000012111F033FF0121022011F02FFF0A2046
:10B810000EF054FE21460E2011F0A4FE2146012018
:10B8200011F0A0FE2146204611F09CFE2146022088
:10B8300011F098FE2146142011F094FE21460720B5
:10B8400011F090FE514B00935148392301220A21F7
:10B8500003F05EFA4F4B187000286AD15822772106
:10B860004D4805F02BFB4D4B024644214C481A70C5
:10B8700005F026FC4B4B4C4902464C481A7005F02B
:10B880005FFF4B4B49481A68012105F071FE0346E2
:10B89000003B484A454818BF0123137005F026FFB6
:10B8A0003A4A45481C210CF0E3FD444B0246012175
:10B8B00041481A700CF050FD3F4800210CF00AFE80
:10B8C00001213D480CF022FE304804F02BFB3C499E
:10B8D0002E4804F0DDFB03A933200AF0EFFF002817
:10B8E00040D02A4804F01EFB3649284804F0D0FB1B
:10B8F000354804F075FD3549334804F015FE3448E9
:10B9000004F06EFD3349324804F00EFE324804F074
:10B9100067FD3249304804F007FE314804F060FD0D
:10B9200030492F4804F000FEFDF732FD0DF2946D12
:10B9300030BDFF222146164803F042FC1448012185
:10B9400003F06EFB1248012103F068F90221104850
:10B9500003F042F90E4803F013FC0D48322103F0C6
:10B96000EFF87BE7204B2149012403A81C700CF061
:10B970004FFA214633200BF001F8B2E7346400207F
:10B98000ACA000201C6400207C18040010A1002042
:10B990001CA00020936400206CA00020A464002060
:10B9A00034A000209964002085BD0200CCA10020B5
:10B9B000086000209F64002044A000209B640020B9
:10B9C000801A0600A0860100589E0020FDAC0200EF
:10B9D000C09D0020899E0200F09E0020DDB1020083
:10B9E000889F0020F1B90200A66400204473002063
:10B9F0002DE9F04FD04AD1491378D148097883F026
:10BA00000103002485B013700470002900F07C81CC
:10BA1000002B00F06481CB48009423468022012152
:10BA200000F0CCFCC748009423468022022100F09D
:10BA3000C5FC234680220321C248009400F0BEFCCE
:10BA4000C048C14DC14FC24EDFF830B300F000FA1C
:10BA5000C048214601F098F8DFF824C3BE4ABF4B26
:10BA6000BF49C0482C7001258CF8004014701C6040
:10BA70003D7034700C7004F055FABB49B94804F0BD
:10BA800007FB042133200AF079FF294609204FF2F1
:10BA9000B37511F0EBFD4FF00B081E26062216279A
:10BAA000CDE901851146AB480096162301F03CFA1A
:10BAB000CDE901853B46A7480096CC22062101F03E
:10BAC00033FACDE900753B46A248CC22062102F0AC
:10BAD0002DF9CDE900759F480C230E22062102F0B6
